:020000040000FA
:0400000052EF04F0C7
:1006000000707265737320616E79206B65790A0DD5
:10061000000046696E616E6365204D696E69737492
:100620006572204172756E204A6169746C6579202B
:100630005475657364617920686974206F757420DE
:10064000617420666F726D65722052424920676F37
:100650007665726E6F7220526167687572616D2087
:1006600052616A616E20666F7220707265646963A0
:1006700074696E67207468617420746865206E65A3
:1006800078742062616E6B696E672063726973694A
:100690007320776F756C6420626520747269676778
:1006A00065726564206279204D534D45206C656EFE
:1006B00064696E672C20736179696E6720706F734F
:1006C000746D6F7274656D206973206561736965FF
:1006D00072207468616E2074616B696E672061635B
:1006E00074696F6E207768656E2069742077617316
:1006F0002072657175697265642E2052616A616E3F
:100700002C2077686F2068616420617320746865AD
:100710002063686965662065636F6E6F6D697374C9
:1007200020617420494D46207761726E6564206FA8
:100730006620696D70656E64696E672066696E61BA
:100740006E6369616C20637269736973206F6620E0
:10075000323030382C20696E2061206E6F74652035
:10076000746F2061207061726C69616D656E746177
:10077000727920636F6D6D6974746565207761723D
:100780006E656420616761696E737420616D626972
:1007900074696F7573206372656469742074617223
:1007A0006765747320616E64206C6F616E20776181
:1007B00069766572732C20736179696E672074683D
:1007C0006174207468657920636F756C642062655C
:1007D0002074686520736F7572636573206F66207F
:1007E0006E6578742062616E6B696E6720637269F2
:1007F0007369732E20476F7665726E6D656E742017
:1008000073686F756C6420666F637573206F6E20FC
:10081000736F7572636573206F6620746865206EF0
:10082000657874206372697369732C206E6F74200D
:100830006A75737420746865206C617374206F6EC0
:05084000652E0A0D0009
:1008460039EF04F002C0F6FF03C0F7FFF86A050EA1
:10085600F76403D00800F55005D0F6CFE9FFF7CFCF
:10086600EAFFEF50A8EC04F0024A032A02C0F6FFA2
:1008760003C0F7FFF86A050EF76403D00800F550C9
:1008860005D0F6CFE9FFF7CFEAFFEF500009D8A46D
:100896004FEF04F051EF04F025EF04F01200120EB2
:1008A600F66E060EF76E000EF86E03EECDF012EE43
:1008B60033F00900F5CFEEFFE550E150FAE1E250E2
:1008C600F8E1000EF86E00018CEF04F0949C948E13
:1008D600AC9CAC8AAC86AC98AC84AB8EAB9CAB883B
:1008E600B896810EAF6E9D889D8A9E989E9A12003C
:1008F60069EC04F0CD0E026E030E036E23EC04F0D9
:10090600010E026E060E036E23EC04F0B4EC04F046
:1009160012007BEC04F09AEC04F00E0E026E060E4A
:10092600036E23EC04F08EEF04F000EF00F09EAAB5
:100936009FEF04F0A1EF04F09AEF04F09E9AAECF79
:1009460002F00250A8EC04F01200016E9EA8AEEF71
:1009560004F0B0EF04F0A9EF04F001C0ADFF9E98DB
:1009660012009EAAB9EF04F0BBEF04F0B4EF04F056
:060976009E9AAE50120033
:020000040020DA
:08000000FFFFFFFFFFFFFFFF00
:020000040030CA
:0E000000FF071F1FFF8285FF0FC00FE00F409C
:00000001FF
