:020000040000FA
:0400000071EF11F09B
:10229400016E01C0A9FFA69EA69CA694A680A85084
:1022A4001200016E9EA859EF11F05BEF11F054EF8C
:1022B40011F001C0ADFF9E981200949C948EAC9CCA
:1022C400AC8AAC86AC98AC84AB8EAB9CAB88B8962D
:1022D400810EAF6E9D889D8A9E989E9A1200090E6B
:1022E400F66E260EF76E000EF86E03EECDF012EECB
:1022F40033F00900F5CFEEFFE550E150FAE1E2508A
:10230400F8E100019EEF11F0026E01C0A9FF02C0C6
:10231400A8FFA69EA69CA684F29E550EA76EAA0EA2
:10232400A76EA682F28EA1A89AEF11F09CEF11F08D
:1023340095EF11F0A19812005FEC11F0000E476EBA
:10234400000E486E000E496E000E4A6E000E4F6E6F
:10235400000E4E6E4EC001F0CD0E4E24D96E030E0B
:102364004F20DA6EDF5086EC11F04E4A4F2A4FBEF2
:10237400C5EF11F0E80E4E5C030E4F58D8A0C5EF20
:1023840011F0C7EF11F0ACEF11F0000E4D6E000E1E
:102394004C6E4C504AEC11F04B6E4B5053EC11F018
:1023A400080E4726000E482249224A224C4A4D2A4A
:1023B4004DBEE6EF11F0E80E4C5C030E4D58D8A06C
:1023C400E6EF11F0E8EF11F0CBEF11F04150435C70
:1023D400456E42504458466E45C001F046C002F076
:1023E400036A046A000E2AEC12F001C013F002C062
:1023F40014F003C015F004C016F047C001F048C043
:1024040002F049C003F04AC004F0000E2AEC12F0B6
:1024140001C00FF002C010F003C011F004C012F0AC
:102424001EEC14F00FC028F010C029F011C02AF0DF
:1024340012C02BF0000E2C6E000E2D6E000E2E6EB0
:10244400410E2F6EEBEC15F026EF12F000EF00F0CA
:10245400096E0950D8B431EF12F033EF12F055EF92
:1024640012F004BE3AEF12F038EF12F055EF12F00A
:1024740001C005F002C006F003C007F004C008F074
:10248400051E061E071E081E052A000E0622072228
:10249400082205C00BF006C00CF007C00DF008C000
:1024A4000EF05DEF12F001C00BF002C00CF003C09F
:1024B4000DF004C00EF00150021003100410D8A453
:1024C40066EF12F068EF12F072EF12F0000E016E78
:1024D400000E026E000E036E000E046E03EF13F086
:1024E400960E0A6E7CEF12F00A2AD8900E320D3244
:1024F4000C320B32000E0B14056E000E0C14066E1B
:10250400000E0D14076EFE0E0E14086E0550061014
:1025140007100810D8A491EF12F093EF12F076EFA1
:1025240012F0A1EF12F00A2A010E0B26000E0C2263
:102534000D220E22D8900E320D320C320B32000EC8
:102544000B14056E000E0C14066E000E0D14076EAF
:10255400FF0E0E14086E0550061007100810D8A4BC
:10256400B6EF12F0B8EF12F095EF12F0C0EF12F0E0
:102574000A06D8900B360C360D360E360DBEC5EF56
:1025840012F0C7EF12F0CFEF12F0020E0A60CDEF97
:1025940012F0CFEF12F0BAEF12F00AB0D4EF12F04B
:1025A400D6EF12F0D7EF12F00D9ED8900A320AC07F
:1025B40005F0066A076A086A05C008F0076A066A31
:1025C400056A05500B1206500C1207500D120850E4
:1025D4000E120950D8B4F1EF12F0F3EF12F0FBEF42
:1025E40012F004BEFAEF12F0F8EF12F0FBEF12F063
:1025F4000E8E0BC001F00CC002F00DC003F00EC033
:0426040004F01200CC
:1026090046696E616E6365204D696E6973746572A2
:10261900204172756E204A6169746C657920547520
:10262900657364617920686974206F7574206174B9
:1026390020666F726D65722052424920676F766518
:10264900726E6F7220526167687572616D20526196
:102659006A616E20666F722070726564696374695D
:102669006E67207468617420746865206E6578747B
:102679002062616E6B696E6720637269736973208A
:10268900776F756C6420626520747269676765721B
:102699006564206279204D534D45206C656E6469EF
:1026A9006E672C20736179696E6720706F73746D22
:1026B9006F7274656D206973206561736965722035
:1026C9007468616E2074616B696E672061637469F7
:1026D9006F6E207768656E20697420776173207248
:1026E900657175697265642E2052616A616E2C206C
:1026F90077686F206861642061732074686520635E
:10270900686965662065636F6E6F6D6973742061B2
:102719007420494D46207761726E6564206F66208A
:10272900696D70656E64696E672066696E616E6356
:1027390069616C20637269736973206F6620323036
:1027490030382C20696E2061206E6F746520746F9B
:102759002061207061726C69616D656E7461727956
:1027690020636F6D6D6974746565207761726E653C
:102779006420616761696E737420616D626974694F
:102789006F7573206372656469742074617267651B
:10279900747320616E64206C6F616E207761697655
:1027A9006572732C20736179696E6720746861742E
:1027B900207468657920636F756C64206265207484
:1027C900686520736F7572636573206F66206E6527
:1027D90078742062616E6B696E67206372697369D0
:1027E900732E20476F7665726E6D656E74207368FF
:1027F9006F756C6420666F637573206F6E20736FDD
:102809007572636573206F6620746865206E6578DC
:1028190074206372697369732C206E6F74206A75F2
:10282900737420746865206C617374206F6E652EF3
:102839000A0D001250800B1F6E12501224266E11C1
:10284900AE29EF14F02BEF14F02CEF14F0268026AC
:1028590050D8B432EF14F034EF14F049EF14F026E5
:1028690028D8A43AEF14F03CEF14F044EF14F00028
:102879000E0F6E000E106E000E116E000E126E110C
:102889008E000E126E51EF14F0000E0F6E000E1036
:102899006E000E116E000E126E1650800B1F1A1666
:1028A900501624276E15AE5CEF14F05EEF14F05F3E
:1028B900EF14F027802750D8B465EF14F067EF14B0
:1028C900F07CEF14F02728D8A46DEF14F06FEF1403
:1028D900F077EF14F0000E136E000E146E000E1553
:1028E9006E000E166E158E000E166E84EF14F00033
:1028F9000E136E000E146E000E156E000E166E137A
:1029090050141015101610D8A48DEF14F08FEF1471
:10291900F0A7EF14F0000E0F6E000E106E000E11EE
:102929006E000E126E800E11127F0E12121F5012BF
:10293900120FC00FF010C010F011C011F012C01228
:10294900F0EAEF15F02650D8A4ADEF14F0AFEF146C
:10295900F0B9EF14F0000E0F6E000E106E000E119C
:102969006E000E126EEAEF15F0275026C017F01808
:102979006A175E000E185A7F0E1724206E000E1873
:1029890020216E0FC01BF010C01CF011C01DF012E9
:10299900C01EF0000E0F6E000E106E000E116E00BC
:1029A9000E126E000E226E000E236E000E246E00B3
:1029B9000E256E000E276E1AEF15F02750D8B4E8D1
:1029C900EF14F0EAEF14F001EF15F0D8901B361C64
:1029D900361D361E36D8900F36103611361236256A
:1029E900AEF9EF14F0FBEF14F0FCEF14F00F80D800
:1029F90090223623362436253613501B5C14501C7E
:102A09005815501D5816501E58D8A00EEF15F01025
:102A1900EF15F019EF15F0258C13501B5E14501C9F
:102A29005A15501D5A16501E5A272A190E27642066
:102A3900EF15F022EF15F0E2EF14F01B501C101DFA
:102A4900101E10D8B42BEF15F02DEF15F045EF152A
:102A5900F0228045EF15F0D8900F36103611361256
:102A69003625AE3AEF15F03CEF15F03DEF15F00FB6
:102A790080D89022362336243625362006D8A02140
:102A89000611AE4AEF15F04CEF15F030EF15F000D6
:102A99000E276E25AE53EF15F055EF15F079EF15AA
:102AA900F0FF0E2214176EFF0E2314186EFF0E246A
:102AB90014196E7F0E25141A6E1750181019101A52
:102AC90010D8B46AEF15F06CEF15F070EF15F0013E
:102AD9000E276E79EF15F00FA075EF15F077EF154A
:102AE900F079EF15F06CEF15F02750D8B47FEF159A
:102AF900F081EF15F0A5EF15F0010E0F26000E106D
:102B0900221122122212A08CEF15F08EEF15F0A5DA
:102B1900EF15F00FC017F010C018F011C019F0121E
:102B2900C01AF01A341A3219321832173217C00F74
:102B3900F018C010F019C011F01AC012F0204A2183
:102B49002A21BEB0EF15F0215008E12028D8A0B005
:102B5900EF15F0B2EF15F0BDEF15F0000E216E2064
:102B690068000E0F6E000E106E000E116E000E1230
:102B79006E21BECAEF15F0215006E12004D8B0C875
:102B8900EF15F0CAEF15F0D8EF15F0000E216E0021
:102B99000E206E000E0F6E000E106E000E116E00EC
:102BA9000E126E000E1F6E20C026F026A0DFEF1554
:102BB900F0E1EF15F0E4EF15F0118EE5EF15F011E6
:102BC9009ED8902630126E9BEF14F012002B508085
:102BD9000B346E2B502B243A6E2AAEF6EF15F0F813
:102BE900EF15F0F9EF15F03A803A50D8B4FFEF1528
:102BF900F001EF16F014EF16F03A28D8A407EF16F3
:102C0900F009EF16F011EF16F0000E286E000E29EC
:102C19006E000E2A6E000E2B6E2A8E1CEF16F00027
:102C29000E286E000E296E000E2A6E000E2B6E2FD6
:102C390050800B341A2F502F24396E2EAE27EF16E1
:102C4900F029EF16F02AEF16F039803950D8B43050
:102C5900EF16F032EF16F045EF16F03928D8A43800
:102C6900EF16F03AEF16F042EF16F0000E2C6E0058
:102C79000E2D6E000E2E6E000E2F6E2E8E4DEF163F
:102C8900F0000E2C6E000E2D6E000E2E6E000E2F13
:102C99006E3950D8B453EF16F055EF16F05DEF16B4
:102CA900F03A50D8A45BEF16F05DEF16F067EF1617
:102CB900F0000E286E000E296E000E2A6E000E2BF3
:102CC9006EFFEF17F02E502802F3CF3FF0F4CF40FC
:102CD900F03F50356E366A376A386A40503B6E3C71
:102CE9006A3D6A3E6A2D502902F3CF3FF0F4CF4086
:102CF900F03F503526000E36223722382240503B0D
:102D090026000E3C223D223E222C502A02F3CF3FC0
:102D1900F0F4CF40F03F503526000E3622372238E6
:102D29002240503B26000E3C223D223E2237C0382D
:102D3900F036C037F035C036F0356A2C502902F329
:102D4900CF3FF0F4CF40F03F5035264050362200B7
:102D59000E3722000E38222D502802F3CF3FF0F40F
:102D6900CF40F03F50352640503622000E37220022
:102D79000E382237C038F036C037F035C036F03556
:102D89006A2C502802F3CF3FF0F4CF40F03F503582
:102D99002640503622000E3722000E38222E5029A6
:102DA90002F3CF3FF0F4CF40F03F503B2640503C78
:102DB90022000E3D22000E3E222D502A02F3CF3F63
:102DC900F0F4CF40F03F503B2640503C22000E3DEE
:102DD90022000E3E222E502A02F3CF3FF0F4CF40BC
:102DE900F03F50306E4050316E326A336A32C03330
:102DF900F031C032F030C031F0306A30503B26310A
:102E0900503C2232503D2233503E2235C030F036FC
:102E1900C031F037C032F038C033F0190E1AEF174D
:102E2900F0D8903332323231323032E82E15EF1782
:102E3900F030503B2631503C2232503D2233503E37
:102E49002237C038F036C037F035C036F0356A3928
:102E5900503AC030F0316A3026000E3122820E30ED
:102E6900243F6EFF0E3120406E50EF17F0D8903B93
:102E7900363C363D363E3638AE45EF17F047EF174C
:102E8900F048EF17F03B80D890353636363736386C
:102E9900363F06D8A040063DAE55EF17F057EF175D
:102EA900F03BEF17F0000E396E38AE5EEF17F060A9
:102EB900EF17F084EF17F0FF0E3514306EFF0E3662
:102EC90014316EFF0E3714326E7F0E3814336E30A4
:102ED90050311032103310D8B475EF17F077EF175F
:102EE900F07BEF17F0010E396E84EF17F03BA080ED
:102EF900EF17F082EF17F084EF17F077EF17F0393B
:102F090050D8B48AEF17F08CEF17F0B0EF17F00133
:102F19000E3B26000E3C223D223E223EA097EF1793
:102F2900F099EF17F0B0EF17F03BC030F03CC0312B
:102F3900F03DC032F03EC033F033343332323231F7
:102F490032303230C03BF031C03CF032C03DF0335A
:102F5900C03EF03F4A402A40BEBBEF17F040500840
:102F6900E13F28D8A0BBEF17F0BDEF17F0C7EF1767
:102F7900F0000E3B6E000E3C6E800E3D6E7F0E3EE5
:102F89006EF5EF17F040BED4EF17F0405006E13F61
:102F990004D8B0D2EF17F0D4EF17F0E0EF17F00034
:102FA9000E3B6E000E3C6E000E3D6E000E3E6E0036
:102FB9000E346EF5EF17F03FC03AF0FF0E3B16FFE7
:102FC9000E3C167F0E3D16000E3E163AA0EFEF1787
:102FD900F0F1EF17F0F2EF17F03D8ED8903A303E4E
:102FE9006E34503E123BC028F03CC029F03DC02A47
:072FF900F03EC02BF01200B6
:020000040020DA
:08000000FFFFFFFFFFFFFFFF00
:020000040030CA
:0E000000FF071F1FFF8285FF0FC00FE00F409C
:00000001FF
